:020000040800F2
:100000001804002065010008830300087B03000832
:100010007F030008AD0100083D0500080000000056
:10002000000000000000000000000000A90300081C
:10003000B10100080000000085030008CD0400089D
:100040007F0100087F0100087F0100087F01000890
:100050007F0100087F0100087F0100087F01000880
:100060007F0100087F0100087F0100087F01000870
:100070007F0100087F0100087F0100087F01000860
:100080007F0100087F0100087F0100087F01000850
:100090007F0100087F0100087F0100087F01000840
:1000A0007F0100087F0100087F0100087F01000830
:1000B0007F0100087F0100087F0100087F01000820
:1000C0007F0100087F0100087F0100087F01000810
:1000D0007F0100087F0100087F0100087F01000800
:1000E0007F0100087F0100087F0100080000000078
:1000F0000000000000000000000000000000000000
:1001000000000000000000007F0100087F010008DF
:100110007F0100087F0100087F0100087F010008BF
:100120007F0100087F0100087F0100087F010008AF
:100130007F0100087F0100087F0100087F0100089F
:100140007F0100087F0100087F0100087F0100088F
:10015000DFF80CD000F018F80048004761050008EF
:10016000180400200648804706480047FEE7FEE7DF
:10017000FEE7FEE7FEE7FEE7FEE7FEE7FEE7FEE757
:10018000D104000851010008064C074D06E0E06864
:1001900040F0010394E8070098471034AC42F6D3CE
:1001A000FFF7DAFF94050008B405000800BFFEE77A
:1001B0007047000030B5164800684FF47A72B0FB03
:1001C000F2F1B1F1807F01D301201DE021F07F40E9
:1001D000401E4FF0E022506150170F22002807DA2E
:1001E00013071D0E0B4B00F00F04241F1D5503E0D9
:1001F00013071C0E084B1C5400BF00204FF0E022D8
:10020000906107201061002008B100BFFEE730BDFB
:100210000000002018ED00E000E400E00349086061
:1002200000BF024909680029FBD170471400002073
:1002300008B50121412000F0A7F84FF6FF70ADF896
:10024000000003208DF8020048208DF80300694665
:10025000014800F003F808BD001801402DE9F04105
:10026000024600250026002000230024002791F8E4
:1002700003C00CF00F0591F803C00CF0100CBCF19A
:10028000000F03D091F802C04CEA050591F800C0B8
:10029000BCF1000F31D0146800202BE04FF0010CAE
:1002A0000CFA00F3B1F800C00CEA03069E4220D11C
:1002B00083004FF00F0C0CFA03F7BC4305FA03FC64
:1002C0004CEA040491F803C0BCF1280F06D14FF0AA
:1002D000010C0CFA00FCC2F814C00AE091F803C04B
:1002E000BCF1480F05D14FF0010C0CFA00FCC2F82C
:1002F00010C0401C0828D1D31460B1F800C0BCF174
:10030000FF0F34DD546800202EE000F1080C4FF0A0
:10031000010808FA0CF3B1F800C00CEA03069E428B
:1003200021D183004FF00F0C0CFA03F7BC4305FA00
:1003300003FC4CEA040491F803C0BCF1280F05D17A
:1003400000F1080C08FA0CF8C2F8148091F803C008
:10035000BCF1480F07D100F1080C4FF0010808FA72
:100360000CF8C2F81080401C0828CED35460BDE8B9
:10037000F0810146886880B2704700BFFEE700BF89
:10038000FEE770477047000029B1064A92690243B0
:10039000044B9A6104E0034A92698243014B9A61DB
:1003A0007047000000100240704710B500F002F8DE
:1003B00010BD00000CB50020019000903F4800687F
:1003C00040F480303D49086000BF3C48006800F4BC
:1003D000003000900198401C0190009818B90198D5
:1003E000B0F5A06FF1D13548006800F4003010B1CD
:1003F0000120009001E000200090009801285CD1CD
:100400002F48006840F010002D4908600846006839
:1004100020F0030008600846006840F00200086011
:1004200026484068254948600846406848600846B4
:10043000406840F4806048600846C06A214908402E
:100440001E49C8620846C06A1F4908431B49C86262
:100450000846006840F08060086000BF17480068E8
:1004600000F000600028F9D01448406820F47C10A7
:10047000124948600846406840F4E8104860084661
:10048000006840F08070086000BF0C48006800F011
:1004900000700028F9D00948406820F0030007499F
:1004A00048600846406840F00200486000BF0348CA
:1004B000406800F00C000828F9D10CBD0010024083
:1004C0000020024000F0FEFF4406010070470000DB
:1004D00010B51648006840F001001449086008464D
:1004E00040681349084011494860084600681149AE
:1004F00008400E4908600846006820F48020086023
:100500000846406820F4FE0048600846006820F075
:10051000A05008604FF47F0088600020C862FFF799
:1005200044FF4FF000600449086010BD0010024015
:100530000000FFF0FFFFF6FE08ED00E000BFFEE761
:1005400002E008C8121F08C1002AFAD1704770479C
:10055000002001E001C1121F002AFBD170470000FA
:100560001CB5002001900090FFF7B2FFFFF722FEBC
:10057000FFF75EFE0AE00648FFF7FBFE01900198D8
:10058000C0B200904FF47A70FFF748FEF3E7000026
:1005900000180140B4050008000000201800000009
:1005A00040050008CC0500081800002000040000E9
:1005B0005005000800A24A040000000000000000EE
:0C05C00001020304060708090000000007
:04000005080001519D
:00000001FF
